{
  "_format": "hh-sol-artifact-1",
  "contractName": "WavePortal",
  "sourceName": "contracts/WavePortal.sol",
  "abi": [
    {
      "inputs": [],
      "stateMutability": "payable",
      "type": "constructor"
    },
    {
      "anonymous": false,
      "inputs": [
        {
          "indexed": true,
          "internalType": "address",
          "name": "from",
          "type": "address"
        },
        {
          "indexed": false,
          "internalType": "uint256",
          "name": "timestamp",
          "type": "uint256"
        },
        {
          "indexed": false,
          "internalType": "string",
          "name": "message",
          "type": "string"
        }
      ],
      "name": "NewWave",
      "type": "event"
    },
    {
      "inputs": [],
      "name": "getAllWaves",
      "outputs": [
        {
          "components": [
            {
              "internalType": "address",
              "name": "waver",
              "type": "address"
            },
            {
              "internalType": "string",
              "name": "message",
              "type": "string"
            },
            {
              "internalType": "uint256",
              "name": "timestamp",
              "type": "uint256"
            }
          ],
          "internalType": "struct WavePortal.Wave[]",
          "name": "",
          "type": "tuple[]"
        }
      ],
      "stateMutability": "view",
      "type": "function"
    },
    {
      "inputs": [],
      "name": "getTotalWaves",
      "outputs": [
        {
          "internalType": "uint256",
          "name": "",
          "type": "uint256"
        }
      ],
      "stateMutability": "view",
      "type": "function"
    },
    {
      "inputs": [
        {
          "internalType": "address",
          "name": "",
          "type": "address"
        }
      ],
      "name": "lastWaveAt",
      "outputs": [
        {
          "internalType": "uint256",
          "name": "",
          "type": "uint256"
        }
      ],
      "stateMutability": "view",
      "type": "function"
    },
    {
      "inputs": [
        {
          "internalType": "string",
          "name": "_message",
          "type": "string"
        }
      ],
      "name": "wave",
      "outputs": [],
      "stateMutability": "nonpayable",
      "type": "function"
    }
  ],
  "bytecode": "0x60806040526200004f6040518060400160405280601981526020017f57652068617665206265656e20636f6e737472756374656421000000000000008152506200007760201b620006c41760201c565b606444426200005f91906200017c565b6200006b919062000208565b60018190555062000308565b62000117816040516024016200008e9190620002e4565b6040516020818303038152906040527f41304fac000000000000000000000000000000000000000000000000000000007bffffffffffffffffffffffffffffffffffffffffffffffffffffffff19166020820180517bffffffffffffffffffffffffffffffffffffffffffffffffffffffff83818316178352505050506200011a60201b60201c565b50565b60008151905060006a636f6e736f6c652e6c6f679050602083016000808483855afa5050505050565b6000819050919050565b7f4e487b7100000000000000000000000000000000000000000000000000000000600052601160045260246000fd5b6000620001898262000143565b9150620001968362000143565b9250827fffffffffffffffffffffffffffffffffffffffffffffffffffffffffffffffff03821115620001ce57620001cd6200014d565b5b828201905092915050565b7f4e487b7100000000000000000000000000000000000000000000000000000000600052601260045260246000fd5b6000620002158262000143565b9150620002228362000143565b925082620002355762000234620001d9565b5b828206905092915050565b600081519050919050565b600082825260208201905092915050565b60005b838110156200027c5780820151818401526020810190506200025f565b838111156200028c576000848401525b50505050565b6000601f19601f8301169050919050565b6000620002b08262000240565b620002bc81856200024b565b9350620002ce8185602086016200025c565b620002d98162000292565b840191505092915050565b60006020820190508181036000830152620003008184620002a3565b905092915050565b6113d480620003186000396000f3fe608060405234801561001057600080fd5b506004361061004c5760003560e01c8063449d46c0146100515780639a2cdc081461006d578063bd43a9081461008b578063cb199503146100a9575b600080fd5b61006b60048036038101906100669190610a18565b6100d9565b005b610075610510565b6040516100829190610a7a565b60405180910390f35b61009361055b565b6040516100a09190610c7f565b60405180910390f35b6100c360048036038101906100be9190610ccd565b6106ac565b6040516100d09190610a7a565b60405180910390f35b426000600360003373ffffffffffffffffffffffffffffffffffffffff1673ffffffffffffffffffffffffffffffffffffffff168152602001908152602001600020546101269190610d29565b10610166576040517f08c379a000000000000000000000000000000000000000000000000000000000815260040161015d90610ddc565b60405180910390fd5b42600360003373ffffffffffffffffffffffffffffffffffffffff1673ffffffffffffffffffffffffffffffffffffffff1681526020019081526020016000208190555060016000808282546101bc9190610d29565b925050819055506102026040518060400160405280600c81526020017f25732068617320776176656400000000000000000000000000000000000000008152503361075d565b600260405180606001604052803373ffffffffffffffffffffffffffffffffffffffff16815260200183815260200142815250908060018154018082558091505060019003906000526020600020906003020160009091909190915060008201518160000160006101000a81548173ffffffffffffffffffffffffffffffffffffffff021916908373ffffffffffffffffffffffffffffffffffffffff16021790555060208201518160010190816102ba9190611008565b50604082015181600201555050606460015442446102d89190610d29565b6102e29190610d29565b6102ec9190611109565b6001819055506103336040518060400160405280601581526020017f52616e646f6d20232067656e65726174643a20256400000000000000000000008152506001546107f9565b60326001541161047d5761037c6040518060400160405280600781526020017f257320776f6e21000000000000000000000000000000000000000000000000008152503361075d565b6000655af3107a40009050478111156103ca576040517f08c379a00000000000000000000000000000000000000000000000000000000081526004016103c1906111ac565b60405180910390fd5b60003373ffffffffffffffffffffffffffffffffffffffff16826040516103f0906111fd565b60006040518083038185875af1925050503d806000811461042d576040519150601f19603f3d011682016040523d82523d6000602084013e610432565b606091505b5050905080610476576040517f08c379a000000000000000000000000000000000000000000000000000000000815260040161046d90611284565b60405180910390fd5b50506104bd565b6104bc6040518060400160405280600f81526020017f257320646964206e6f742077696e2e00000000000000000000000000000000008152503361075d565b5b3373ffffffffffffffffffffffffffffffffffffffff167f5f7e16dc676677766a70e9c5628aa6c54ddb8b6e5188e2ae1e1f17f1ffbea71642836040516105059291906112dd565b60405180910390a250565b60006105536040518060400160405280601781526020017f5765206861766520256420746f74616c207761766573210000000000000000008152506000546107f9565b600054905090565b60606002805480602002602001604051908101604052809291908181526020016000905b828210156106a357838290600052602060002090600302016040518060600160405290816000820160009054906101000a900473ffffffffffffffffffffffffffffffffffffffff1673ffffffffffffffffffffffffffffffffffffffff1673ffffffffffffffffffffffffffffffffffffffff16815260200160018201805461060890610e2b565b80601f016020809104026020016040519081016040528092919081815260200182805461063490610e2b565b80156106815780601f1061065657610100808354040283529160200191610681565b820191906000526020600020905b81548152906001019060200180831161066457829003601f168201915b505050505081526020016002820154815250508152602001906001019061057f565b50505050905090565b60036020528060005260406000206000915090505481565b61075a816040516024016106d8919061130d565b6040516020818303038152906040527f41304fac000000000000000000000000000000000000000000000000000000007bffffffffffffffffffffffffffffffffffffffffffffffffffffffff19166020820180517bffffffffffffffffffffffffffffffffffffffffffffffffffffffff8381831617835250505050610895565b50565b6107f5828260405160240161077392919061133e565b6040516020818303038152906040527f319af333000000000000000000000000000000000000000000000000000000007bffffffffffffffffffffffffffffffffffffffffffffffffffffffff19166020820180517bffffffffffffffffffffffffffffffffffffffffffffffffffffffff8381831617835250505050610895565b5050565b610891828260405160240161080f92919061136e565b6040516020818303038152906040527f9710a9d0000000000000000000000000000000000000000000000000000000007bffffffffffffffffffffffffffffffffffffffffffffffffffffffff19166020820180517bffffffffffffffffffffffffffffffffffffffffffffffffffffffff8381831617835250505050610895565b5050565b60008151905060006a636f6e736f6c652e6c6f679050602083016000808483855afa5050505050565b6000604051905090565b600080fd5b600080fd5b600080fd5b600080fd5b6000601f19601f8301169050919050565b7f4e487b7100000000000000000000000000000000000000000000000000000000600052604160045260246000fd5b610925826108dc565b810181811067ffffffffffffffff82111715610944576109436108ed565b5b80604052505050565b60006109576108be565b9050610963828261091c565b919050565b600067ffffffffffffffff821115610983576109826108ed565b5b61098c826108dc565b9050602081019050919050565b82818337600083830152505050565b60006109bb6109b684610968565b61094d565b9050828152602081018484840111156109d7576109d66108d7565b5b6109e2848285610999565b509392505050565b600082601f8301126109ff576109fe6108d2565b5b8135610a0f8482602086016109a8565b91505092915050565b600060208284031215610a2e57610a2d6108c8565b5b600082013567ffffffffffffffff811115610a4c57610a4b6108cd565b5b610a58848285016109ea565b91505092915050565b6000819050919050565b610a7481610a61565b82525050565b6000602082019050610a8f6000830184610a6b565b92915050565b600081519050919050565b600082825260208201905092915050565b6000819050602082019050919050565b600073ffffffffffffffffffffffffffffffffffffffff82169050919050565b6000610aec82610ac1565b9050919050565b610afc81610ae1565b82525050565b600081519050919050565b600082825260208201905092915050565b60005b83811015610b3c578082015181840152602081019050610b21565b83811115610b4b576000848401525b50505050565b6000610b5c82610b02565b610b668185610b0d565b9350610b76818560208601610b1e565b610b7f816108dc565b840191505092915050565b610b9381610a61565b82525050565b6000606083016000830151610bb16000860182610af3565b5060208301518482036020860152610bc98282610b51565b9150506040830151610bde6040860182610b8a565b508091505092915050565b6000610bf58383610b99565b905092915050565b6000602082019050919050565b6000610c1582610a95565b610c1f8185610aa0565b935083602082028501610c3185610ab1565b8060005b85811015610c6d5784840389528151610c4e8582610be9565b9450610c5983610bfd565b925060208a01995050600181019050610c35565b50829750879550505050505092915050565b60006020820190508181036000830152610c998184610c0a565b905092915050565b610caa81610ae1565b8114610cb557600080fd5b50565b600081359050610cc781610ca1565b92915050565b600060208284031215610ce357610ce26108c8565b5b6000610cf184828501610cb8565b91505092915050565b7f4e487b7100000000000000000000000000000000000000000000000000000000600052601160045260246000fd5b6000610d3482610a61565b9150610d3f83610a61565b9250827fffffffffffffffffffffffffffffffffffffffffffffffffffffffffffffffff03821115610d7457610d73610cfa565b5b828201905092915050565b600082825260208201905092915050565b7f576169742031356d000000000000000000000000000000000000000000000000600082015250565b6000610dc6600883610d7f565b9150610dd182610d90565b602082019050919050565b60006020820190508181036000830152610df581610db9565b9050919050565b7f4e487b7100000000000000000000000000000000000000000000000000000000600052602260045260246000fd5b60006002820490506001821680610e4357607f821691505b602082108103610e5657610e55610dfc565b5b50919050565b60008190508160005260206000209050919050565b60006020601f8301049050919050565b600082821b905092915050565b600060088302610ebe7fffffffffffffffffffffffffffffffffffffffffffffffffffffffffffffffff82610e81565b610ec88683610e81565b95508019841693508086168417925050509392505050565b6000819050919050565b6000610f05610f00610efb84610a61565b610ee0565b610a61565b9050919050565b6000819050919050565b610f1f83610eea565b610f33610f2b82610f0c565b848454610e8e565b825550505050565b600090565b610f48610f3b565b610f53818484610f16565b505050565b5b81811015610f7757610f6c600082610f40565b600181019050610f59565b5050565b601f821115610fbc57610f8d81610e5c565b610f9684610e71565b81016020851015610fa5578190505b610fb9610fb185610e71565b830182610f58565b50505b505050565b600082821c905092915050565b6000610fdf60001984600802610fc1565b1980831691505092915050565b6000610ff88383610fce565b9150826002028217905092915050565b61101182610b02565b67ffffffffffffffff81111561102a576110296108ed565b5b6110348254610e2b565b61103f828285610f7b565b600060209050601f8311600181146110725760008415611060578287015190505b61106a8582610fec565b8655506110d2565b601f19841661108086610e5c565b60005b828110156110a857848901518255600182019150602085019450602081019050611083565b868310156110c557848901516110c1601f891682610fce565b8355505b6001600288020188555050505b505050505050565b7f4e487b7100000000000000000000000000000000000000000000000000000000600052601260045260246000fd5b600061111482610a61565b915061111f83610a61565b92508261112f5761112e6110da565b5b828206905092915050565b7f547279696e6720746f2077697468647261206d6f7265206d6f6e65792074686160008201527f6e2074686520636f6e7472616374206861730000000000000000000000000000602082015250565b6000611196603283610d7f565b91506111a18261113a565b604082019050919050565b600060208201905081810360008301526111c581611189565b9050919050565b600081905092915050565b50565b60006111e76000836111cc565b91506111f2826111d7565b600082019050919050565b6000611208826111da565b9150819050919050565b7f4661696c656420746f207769746864726177206d6f6e652066726f6d20636f6e60008201527f74726163742e0000000000000000000000000000000000000000000000000000602082015250565b600061126e602683610d7f565b915061127982611212565b604082019050919050565b6000602082019050818103600083015261129d81611261565b9050919050565b60006112af82610b02565b6112b98185610d7f565b93506112c9818560208601610b1e565b6112d2816108dc565b840191505092915050565b60006040820190506112f26000830185610a6b565b818103602083015261130481846112a4565b90509392505050565b6000602082019050818103600083015261132781846112a4565b905092915050565b61133881610ae1565b82525050565b6000604082019050818103600083015261135881856112a4565b9050611367602083018461132f565b9392505050565b6000604082019050818103600083015261138881856112a4565b90506113976020830184610a6b565b939250505056fea2646970667358221220ac70c2ebdd498ffb86db16ee929183df4ab6742fb1846a12f5ac2fb11d94567964736f6c634300080f0033",
  "linkReferences": {},
  "deployedLinkReferences": {}
}