{
  "_format": "hh-sol-artifact-1",
  "contractName": "WavePortal",
  "sourceName": "contracts/WavePortal.sol",
  "abi": [
    {
      "inputs": [],
      "stateMutability": "payable",
      "type": "constructor"
    },
    {
      "anonymous": false,
      "inputs": [
        {
          "indexed": true,
          "internalType": "address",
          "name": "from",
          "type": "address"
        },
        {
          "indexed": false,
          "internalType": "uint256",
          "name": "timestamp",
          "type": "uint256"
        },
        {
          "indexed": false,
          "internalType": "string",
          "name": "message",
          "type": "string"
        }
      ],
      "name": "NewWave",
      "type": "event"
    },
    {
      "inputs": [],
      "name": "getAllWaves",
      "outputs": [
        {
          "components": [
            {
              "internalType": "address",
              "name": "waver",
              "type": "address"
            },
            {
              "internalType": "string",
              "name": "message",
              "type": "string"
            },
            {
              "internalType": "uint256",
              "name": "timestamp",
              "type": "uint256"
            }
          ],
          "internalType": "struct WavePortal.Wave[]",
          "name": "",
          "type": "tuple[]"
        }
      ],
      "stateMutability": "view",
      "type": "function"
    },
    {
      "inputs": [],
      "name": "getTotalWaves",
      "outputs": [
        {
          "internalType": "uint256",
          "name": "",
          "type": "uint256"
        }
      ],
      "stateMutability": "view",
      "type": "function"
    },
    {
      "inputs": [
        {
          "internalType": "address",
          "name": "",
          "type": "address"
        }
      ],
      "name": "lastWaveAt",
      "outputs": [
        {
          "internalType": "uint256",
          "name": "",
          "type": "uint256"
        }
      ],
      "stateMutability": "view",
      "type": "function"
    },
    {
      "inputs": [
        {
          "internalType": "string",
          "name": "_message",
          "type": "string"
        }
      ],
      "name": "wave",
      "outputs": [],
      "stateMutability": "nonpayable",
      "type": "function"
    }
  ],
  "bytecode": "0x60806040526200004f6040518060400160405280601981526020017f57652068617665206265656e20636f6e737472756374656421000000000000008152506200007760201b620006c51760201c565b606444426200005f91906200017c565b6200006b919062000208565b60018190555062000308565b62000117816040516024016200008e9190620002e4565b6040516020818303038152906040527f41304fac000000000000000000000000000000000000000000000000000000007bffffffffffffffffffffffffffffffffffffffffffffffffffffffff19166020820180517bffffffffffffffffffffffffffffffffffffffffffffffffffffffff83818316178352505050506200011a60201b60201c565b50565b60008151905060006a636f6e736f6c652e6c6f679050602083016000808483855afa5050505050565b6000819050919050565b7f4e487b7100000000000000000000000000000000000000000000000000000000600052601160045260246000fd5b6000620001898262000143565b9150620001968362000143565b9250827fffffffffffffffffffffffffffffffffffffffffffffffffffffffffffffffff03821115620001ce57620001cd6200014d565b5b828201905092915050565b7f4e487b7100000000000000000000000000000000000000000000000000000000600052601260045260246000fd5b6000620002158262000143565b9150620002228362000143565b925082620002355762000234620001d9565b5b828206905092915050565b600081519050919050565b600082825260208201905092915050565b60005b838110156200027c5780820151818401526020810190506200025f565b838111156200028c576000848401525b50505050565b6000601f19601f8301169050919050565b6000620002b08262000240565b620002bc81856200024b565b9350620002ce8185602086016200025c565b620002d98162000292565b840191505092915050565b60006020820190508181036000830152620003008184620002a3565b905092915050565b6113d580620003186000396000f3fe608060405234801561001057600080fd5b506004361061004c5760003560e01c8063449d46c0146100515780639a2cdc081461006d578063bd43a9081461008b578063cb199503146100a9575b600080fd5b61006b60048036038101906100669190610a19565b6100d9565b005b610075610511565b6040516100829190610a7b565b60405180910390f35b61009361055c565b6040516100a09190610c80565b60405180910390f35b6100c360048036038101906100be9190610cce565b6106ad565b6040516100d09190610a7b565b60405180910390f35b42610384600360003373ffffffffffffffffffffffffffffffffffffffff1673ffffffffffffffffffffffffffffffffffffffff168152602001908152602001600020546101279190610d2a565b10610167576040517f08c379a000000000000000000000000000000000000000000000000000000000815260040161015e90610ddd565b60405180910390fd5b42600360003373ffffffffffffffffffffffffffffffffffffffff1673ffffffffffffffffffffffffffffffffffffffff1681526020019081526020016000208190555060016000808282546101bd9190610d2a565b925050819055506102036040518060400160405280600c81526020017f25732068617320776176656400000000000000000000000000000000000000008152503361075e565b600260405180606001604052803373ffffffffffffffffffffffffffffffffffffffff16815260200183815260200142815250908060018154018082558091505060019003906000526020600020906003020160009091909190915060008201518160000160006101000a81548173ffffffffffffffffffffffffffffffffffffffff021916908373ffffffffffffffffffffffffffffffffffffffff16021790555060208201518160010190816102bb9190611009565b50604082015181600201555050606460015442446102d99190610d2a565b6102e39190610d2a565b6102ed919061110a565b6001819055506103346040518060400160405280601581526020017f52616e646f6d20232067656e65726174643a20256400000000000000000000008152506001546107fa565b60326001541161047e5761037d6040518060400160405280600781526020017f257320776f6e21000000000000000000000000000000000000000000000000008152503361075e565b6000655af3107a40009050478111156103cb576040517f08c379a00000000000000000000000000000000000000000000000000000000081526004016103c2906111ad565b60405180910390fd5b60003373ffffffffffffffffffffffffffffffffffffffff16826040516103f1906111fe565b60006040518083038185875af1925050503d806000811461042e576040519150601f19603f3d011682016040523d82523d6000602084013e610433565b606091505b5050905080610477576040517f08c379a000000000000000000000000000000000000000000000000000000000815260040161046e90611285565b60405180910390fd5b50506104be565b6104bd6040518060400160405280600f81526020017f257320646964206e6f742077696e2e00000000000000000000000000000000008152503361075e565b5b3373ffffffffffffffffffffffffffffffffffffffff167f5f7e16dc676677766a70e9c5628aa6c54ddb8b6e5188e2ae1e1f17f1ffbea71642836040516105069291906112de565b60405180910390a250565b60006105546040518060400160405280601781526020017f5765206861766520256420746f74616c207761766573210000000000000000008152506000546107fa565b600054905090565b60606002805480602002602001604051908101604052809291908181526020016000905b828210156106a457838290600052602060002090600302016040518060600160405290816000820160009054906101000a900473ffffffffffffffffffffffffffffffffffffffff1673ffffffffffffffffffffffffffffffffffffffff1673ffffffffffffffffffffffffffffffffffffffff16815260200160018201805461060990610e2c565b80601f016020809104026020016040519081016040528092919081815260200182805461063590610e2c565b80156106825780601f1061065757610100808354040283529160200191610682565b820191906000526020600020905b81548152906001019060200180831161066557829003601f168201915b5050505050815260200160028201548152505081526020019060010190610580565b50505050905090565b60036020528060005260406000206000915090505481565b61075b816040516024016106d9919061130e565b6040516020818303038152906040527f41304fac000000000000000000000000000000000000000000000000000000007bffffffffffffffffffffffffffffffffffffffffffffffffffffffff19166020820180517bffffffffffffffffffffffffffffffffffffffffffffffffffffffff8381831617835250505050610896565b50565b6107f6828260405160240161077492919061133f565b6040516020818303038152906040527f319af333000000000000000000000000000000000000000000000000000000007bffffffffffffffffffffffffffffffffffffffffffffffffffffffff19166020820180517bffffffffffffffffffffffffffffffffffffffffffffffffffffffff8381831617835250505050610896565b5050565b610892828260405160240161081092919061136f565b6040516020818303038152906040527f9710a9d0000000000000000000000000000000000000000000000000000000007bffffffffffffffffffffffffffffffffffffffffffffffffffffffff19166020820180517bffffffffffffffffffffffffffffffffffffffffffffffffffffffff8381831617835250505050610896565b5050565b60008151905060006a636f6e736f6c652e6c6f679050602083016000808483855afa5050505050565b6000604051905090565b600080fd5b600080fd5b600080fd5b600080fd5b6000601f19601f8301169050919050565b7f4e487b7100000000000000000000000000000000000000000000000000000000600052604160045260246000fd5b610926826108dd565b810181811067ffffffffffffffff82111715610945576109446108ee565b5b80604052505050565b60006109586108bf565b9050610964828261091d565b919050565b600067ffffffffffffffff821115610984576109836108ee565b5b61098d826108dd565b9050602081019050919050565b82818337600083830152505050565b60006109bc6109b784610969565b61094e565b9050828152602081018484840111156109d8576109d76108d8565b5b6109e384828561099a565b509392505050565b600082601f830112610a00576109ff6108d3565b5b8135610a108482602086016109a9565b91505092915050565b600060208284031215610a2f57610a2e6108c9565b5b600082013567ffffffffffffffff811115610a4d57610a4c6108ce565b5b610a59848285016109eb565b91505092915050565b6000819050919050565b610a7581610a62565b82525050565b6000602082019050610a906000830184610a6c565b92915050565b600081519050919050565b600082825260208201905092915050565b6000819050602082019050919050565b600073ffffffffffffffffffffffffffffffffffffffff82169050919050565b6000610aed82610ac2565b9050919050565b610afd81610ae2565b82525050565b600081519050919050565b600082825260208201905092915050565b60005b83811015610b3d578082015181840152602081019050610b22565b83811115610b4c576000848401525b50505050565b6000610b5d82610b03565b610b678185610b0e565b9350610b77818560208601610b1f565b610b80816108dd565b840191505092915050565b610b9481610a62565b82525050565b6000606083016000830151610bb26000860182610af4565b5060208301518482036020860152610bca8282610b52565b9150506040830151610bdf6040860182610b8b565b508091505092915050565b6000610bf68383610b9a565b905092915050565b6000602082019050919050565b6000610c1682610a96565b610c208185610aa1565b935083602082028501610c3285610ab2565b8060005b85811015610c6e5784840389528151610c4f8582610bea565b9450610c5a83610bfe565b925060208a01995050600181019050610c36565b50829750879550505050505092915050565b60006020820190508181036000830152610c9a8184610c0b565b905092915050565b610cab81610ae2565b8114610cb657600080fd5b50565b600081359050610cc881610ca2565b92915050565b600060208284031215610ce457610ce36108c9565b5b6000610cf284828501610cb9565b91505092915050565b7f4e487b7100000000000000000000000000000000000000000000000000000000600052601160045260246000fd5b6000610d3582610a62565b9150610d4083610a62565b9250827fffffffffffffffffffffffffffffffffffffffffffffffffffffffffffffffff03821115610d7557610d74610cfb565b5b828201905092915050565b600082825260208201905092915050565b7f576169742031356d000000000000000000000000000000000000000000000000600082015250565b6000610dc7600883610d80565b9150610dd282610d91565b602082019050919050565b60006020820190508181036000830152610df681610dba565b9050919050565b7f4e487b7100000000000000000000000000000000000000000000000000000000600052602260045260246000fd5b60006002820490506001821680610e4457607f821691505b602082108103610e5757610e56610dfd565b5b50919050565b60008190508160005260206000209050919050565b60006020601f8301049050919050565b600082821b905092915050565b600060088302610ebf7fffffffffffffffffffffffffffffffffffffffffffffffffffffffffffffffff82610e82565b610ec98683610e82565b95508019841693508086168417925050509392505050565b6000819050919050565b6000610f06610f01610efc84610a62565b610ee1565b610a62565b9050919050565b6000819050919050565b610f2083610eeb565b610f34610f2c82610f0d565b848454610e8f565b825550505050565b600090565b610f49610f3c565b610f54818484610f17565b505050565b5b81811015610f7857610f6d600082610f41565b600181019050610f5a565b5050565b601f821115610fbd57610f8e81610e5d565b610f9784610e72565b81016020851015610fa6578190505b610fba610fb285610e72565b830182610f59565b50505b505050565b600082821c905092915050565b6000610fe060001984600802610fc2565b1980831691505092915050565b6000610ff98383610fcf565b9150826002028217905092915050565b61101282610b03565b67ffffffffffffffff81111561102b5761102a6108ee565b5b6110358254610e2c565b611040828285610f7c565b600060209050601f8311600181146110735760008415611061578287015190505b61106b8582610fed565b8655506110d3565b601f19841661108186610e5d565b60005b828110156110a957848901518255600182019150602085019450602081019050611084565b868310156110c657848901516110c2601f891682610fcf565b8355505b6001600288020188555050505b505050505050565b7f4e487b7100000000000000000000000000000000000000000000000000000000600052601260045260246000fd5b600061111582610a62565b915061112083610a62565b9250826111305761112f6110db565b5b828206905092915050565b7f547279696e6720746f2077697468647261206d6f7265206d6f6e65792074686160008201527f6e2074686520636f6e7472616374206861730000000000000000000000000000602082015250565b6000611197603283610d80565b91506111a28261113b565b604082019050919050565b600060208201905081810360008301526111c68161118a565b9050919050565b600081905092915050565b50565b60006111e86000836111cd565b91506111f3826111d8565b600082019050919050565b6000611209826111db565b9150819050919050565b7f4661696c656420746f207769746864726177206d6f6e652066726f6d20636f6e60008201527f74726163742e0000000000000000000000000000000000000000000000000000602082015250565b600061126f602683610d80565b915061127a82611213565b604082019050919050565b6000602082019050818103600083015261129e81611262565b9050919050565b60006112b082610b03565b6112ba8185610d80565b93506112ca818560208601610b1f565b6112d3816108dd565b840191505092915050565b60006040820190506112f36000830185610a6c565b818103602083015261130581846112a5565b90509392505050565b6000602082019050818103600083015261132881846112a5565b905092915050565b61133981610ae2565b82525050565b6000604082019050818103600083015261135981856112a5565b90506113686020830184611330565b9392505050565b6000604082019050818103600083015261138981856112a5565b90506113986020830184610a6c565b939250505056fea2646970667358221220397c6ed1e114daabbbdf68337d839475fa239560e04480f03130366ee59609d164736f6c634300080f0033",
  "linkReferences": {},
  "deployedLinkReferences": {}
}